:100000000C9462000C948A000C948A000C948A0070
:100010000C948A000C948A000C948A000C948A0038
:100020000C948A000C948A000C948A000C948A0028
:100030000C948A000C948A000C948A000C948A0018
:100040000C9448030C948A000C9416030C94F00250
:100050000C948A000C948A000C948A000C948A00F8
:100060000C948A000C948A000000000024002700F1
:100070002A0000000000250028002B0000000008D6
:10008000000201000003040700000000000000005F
:1000900000000000230026002900040404040404D6
:1000A0000404020202020202030303030303010227
:1000B00004081020408001020408102001020408F6
:1000C0001020400511241FBECFEFD8E0DEBFCDBF0A
:1000D00011E0A0E0B1E0E4E9FDE002C005900D927E
:1000E000A231B107D9F721E0A2E1B1E001C01D9230
:1000F000A83BB207E1F710E0C2E6D0E004C02197C8
:10010000FE010E94BD06C136D107C9F70E94D70380
:100110000C94C8060C940000CF92DF92EF92FF92ED
:100120000F931F93CF93DF936C017A018B01C0E093
:10013000D0E0CE15DF0589F0D8016D918D01D60193
:10014000ED91FC910190F081E02DC6010995892B7C
:1001500011F47E0102C02196ECCFC701DF91CF914F
:100160001F910F91FF90EF90DF90CF900895089529
:1001700080E090E00895FC01538D448D252F30E000
:10018000842F90E0821B930B541710F0CF960895A4
:1001900001970895FC01918D828D981761F0828DF1
:1001A000DF01A80FB11D5D968C91928D9F5F9F73AB
:1001B000928F90E008958FEF9FEF0895FC01918D4D
:1001C000828D981731F0828DE80FF11D858D90E0BA
:1001D00008958FEF9FEF0895FC01918D228D892F57
:1001E00090E0805C9F4F821B91098F73992708953F
:1001F0008BE191E00E94EC0021E0892B09F420E0E2
:10020000822F0895FC01848DDF01A80FB11DA35A30
:10021000BF4F2C91848D90E001968F739927848F26
:10022000A689B7892C93A089B1898C9180648C931D
:10023000938D848D981306C00288F389E02D808108
:100240008F7D80830895EF92FF920F931F93CF933A
:10025000DF93EC0181E0888F9B8D8C8D981305C016
:10026000E889F989808185FD24C0F62E0B8D10E088
:100270000F5F1F4F0F731127E02E8C8DE8120CC0FB
:100280000FB607FCFACFE889F989808185FFF5CFA1
:10029000CE010E940201F1CF8B8DFE01E80FF11D0E
:1002A000E35AFF4FF0820B8FEA89FB8980818062DD
:1002B00007C0EE89FF896083E889F98980818064BD
:1002C000808381E090E0DF91CF911F910F91FF90AB
:1002D000EF900895CF93DF93EC01888D8823C9F0C8
:1002E000EA89FB89808185FD05C0A889B9898C913F
:1002F00086FD0FC00FB607FCF5CF808185FFF2CFDA
:10030000A889B9898C9185FFEDCFCE010E940201A9
:10031000E7CFDF91CF91089580E090E0892B29F01D
:100320000E94F80081110C940000089590E0FC01F7
:10033000E458FF4F3491FC01E255FF4F2491FC013A
:10034000E656FF4FE491EE2309F43BC0332339F125
:10035000333091F038F43130A9F0323001F584B502
:100360008F7D12C0373091F03830A1F03430B9F4BD
:10037000809180008F7D03C0809180008F77809373
:1003800080000DC084B58F7784BD09C08091B00016
:100390008F7703C08091B0008F7D8093B000F0E034
:1003A000EE0FFF1FEE58FF4FA591B4918FB7F89451
:1003B000EC91611103C020952E2301C02E2B2C93AC
:1003C0008FBF0895CF93DF9390E0FC01E255FF4F7C
:1003D0002491FC01E656FF4F8491882361F190E05F
:1003E000880F991FFC01E859FF4FC591D491FC017A
:1003F000EE58FF4FA591B491611109C09FB7F894D1
:100400008881209582238883EC912E230BC0623053
:1004100061F49FB7F8943881822F80958323888375
:10042000EC912E2B2C939FBF06C08FB7F894E881D8
:100430002E2B28838FBFDF91CF9108951F93CF93E9
:10044000DF93182FEB0161E00E94E201209711F485
:1004500060E004C0CF3FD10539F461E0812FDF9126
:10046000CF911F910C949601E12FF0E0E458FF4FDB
:10047000E491E330F9F048F4E130B9F0E230A1F56D
:1004800084B5806284BDC8BD34C0E730E9F0E8308F
:1004900019F1E43049F580918000806280938000FA
:1004A000D0938B00C0938A0024C084B5806884BD3B
:1004B000C7BD1FC080918000806880938000D0936A
:1004C0008900C093880015C08091B0008068809337
:1004D000B000C093B3000DC08091B00080628093E3
:1004E000B000C093B40005C0C038D1050CF0B5CF42
:1004F000AFCFDF91CF911F910895CF93DF93EB01A1
:10050000BC018BE00E941E0260E070E08AE00E9465
:100510001E02BE0189E0DF91CF910C941E023FB70D
:10052000F8948091170190911801A0911901B09150
:100530001A0126B5A89B05C02F3F19F00196A11DF1
:10054000B11D3FBFBA2FA92F982F8827820F911D69
:10055000A11DB11DBC01CD0142E0660F771F881FB0
:10056000991F4A95D1F708958F929F92AF92BF92AB
:10057000CF92DF92EF92FF926B017C010E948F027B
:100580004B015C01C114D104E104F104F1F00E94BB
:100590008F02DC01CB0188199909AA09BB09883EA1
:1005A0009340A105B10570F321E0C21AD108E1081A
:1005B000F10888EE880E83E0981EA11CB11CC114BE
:1005C000D104E104F10419F7DDCFFF90EF90DF9043
:1005D000CF90BF90AF909F908F9008950E94C306D8
:1005E0001F920F920FB60F9211242F933F934F93A8
:1005F0005F936F937F938F939F93AF93BF93EF938B
:10060000FF938BE191E00E940201FF91EF91BF9176
:10061000AF919F918F917F916F915F914F913F919A
:100620002F910F900FBE0F901F9018951F920F9251
:100630000FB60F9211242F938F939F93EF93FF93F5
:10064000E0912B01F0912C018081E0913101F0913A
:10065000320182FD12C09081809134018F5F8F73CF
:1006600020913501821751F0E0913401F0E0E55E10
:10067000FE4F958F8093340101C08081FF91EF91EF
:100680009F918F912F910F900FBE0F901F901895F3
:100690001F920F920FB60F9211242F933F938F93B7
:1006A0009F93AF93BF938091130190911401A091F8
:1006B0001501B09116013091120123E0230F2D375F
:1006C00020F40196A11DB11D05C026E8230F029656
:1006D000A11DB11D20931201809313019093140169
:1006E000A0931501B0931601809117019091180104
:1006F000A0911901B0911A010196A11DB11D80931D
:10070000170190931801A0931901B0931A01BF919A
:10071000AF919F918F913F912F910F900FBE0F90AE
:100720001F901895CF92DF92EF92FF920F931F9335
:10073000E82FF92F05C0015011092109310961F194
:10074000908196239417B9F305C00150110921092E
:10075000310911F1908196239413F7CFC12CD12C3C
:10076000E12CF12C0AC08FEFC81AD80AE80AF80A5F
:100770000C151D052E053F0579F080818623841711
:1007800091F36C2D7D2D8E2D9F2D1F910F91FF903C
:10079000EF90DF90CF90089560E070E080E090E00F
:1007A0001F910F91FF90EF90DF90CF900895789474
:1007B00084B5826084BD84B5816084BD85B5826066
:1007C00085BD85B5816085BD80916E008160809317
:1007D0006E00109281008091810082608093810080
:1007E0008091810081608093810080918000816090
:1007F000809380008091B10084608093B1008091EB
:10080000B00081608093B00080917A008460809312
:100810007A0080917A00826080937A0080917A00D9
:10082000816080937A0080917A00806880937A005A
:100830001092C100E0912B01F0912C0182E08083A5
:10084000E0912701F09128011082E0912901F091B7
:100850002A018FEC808310923301E0912F01F091F7
:10086000300186E08083E0912D01F0912E0180819E
:1008700080618083E0912D01F0912E01808188605C
:100880008083E0912D01F0912E018081806880832A
:10089000E0912D01F0912E0180818F7D808361E0B8
:1008A00087E00E94E20161E08BE00E94E20161E0EA
:1008B0008AE00E94E20161E089E00E94E20161E0D9
:1008C00087E00E94960161E083E00E94E20160E01F
:1008D00082E00E94E201C3E0D0E093E2E92EF12C35
:1008E00020EBC22E20E0D22E3CE9A32E30E0B32E26
:1008F00043E4942E60E083E00E949601CE010197CC
:10090000F1F761E083E00E949601C7010197F1F7DA
:1009100060E083E00E949601F6016491F501249164
:1009200030E0220F331F20573F4FF90185919491FA
:1009300000E412E42FE030E0462F0E94920361159C
:1009400071058105910549F0DC01CB010196A11DDE
:10095000B11DBC01CD019F7003C060E070E0CB0110
:100960000E9431062DEC3CEC48E652E40E948705DB
:100970000E94F9052B013C0190927C0080917A0045
:10098000806480937A0080917A0086FDFCCF10917C
:1009900078000091790060E070E080E090E00E94D3
:1009A0007D02212F30E0302BC901330FAA0BBB0B86
:1009B0009C01AD012F5F334041095109A4E6B0E02D
:1009C0000E946D056F387C478F4F9F4F0CF455C0C8
:1009D0002AE0421651046104710464F560E087E086
:1009E0000E94960103E010E06FEF70E080E090E07D
:1009F0000E947D026AEF70E080E090E00E94B40205
:100A000060E070E080E090E00E947D026AEF70E0BC
:100A100080E090E00E94B4020150110929F768EBD0
:100A20007BE080E090E00E94B40261E087E00E94F9
:100A3000960106C089E14816510461047104ECF482
:100A400003E010E060E070E08FEF90E00E947D0234
:100A50006AEF70E080E090E00E94B40260E070E035
:100A600080E090E00E947D026AEF70E080E090E01C
:100A70000E94B4020150110929F70E948C013ACF5B
:100A8000EBE1F1E01382128288EE93E0A0E0B0E0A7
:100A900084839583A683B78384E091E091838083E8
:100AA00085EC90E09587848784EC90E09787868733
:100AB00080EC90E0918B808B81EC90E0938B828B2B
:100AC00082EC90E0958B848B86EC90E0978B868B04
:100AD000118E128E138E148E08950E947805A59F94
:100AE000900DB49F900DA49F800D911D1124089529
:100AF000A29FB001B39FC001A39F700D811D11245F
:100B0000911DB29F700D811D1124911D08950E94A9
:100B10009B050C9483060E947C0658F00E94750683
:100B200040F029F45F3F29F00C946C0651110C94AD
:100B3000B7060C9472060E94940668F39923B1F3E9
:100B4000552391F3951B550BBB27AA2762177307F3
:100B5000840738F09F5F5F4F220F331F441FAA1F87
:100B6000A9F335D00E2E3AF0E0E832D09150504043
:100B7000E695001CCAF72BD0FE2F29D0660F771FF1
:100B8000881FBB1F261737074807AB07B0E809F0D7
:100B9000BB0B802DBF01FF2793585F4F3AF09E3F5C
:100BA000510578F00C946C060C94B7065F3FE4F3A3
:100BB000983ED4F3869577956795B795F7959F5F9F
:100BC000C9F7880F911D9695879597F90895E1E0EB
:100BD000660F771F881FBB1F621773078407BA074A
:100BE00020F0621B730B840BBA0BEE1F88F7E095A5
:100BF00008950E9400066894B1110C94B7060895F8
:100C00000E949C0688F09F5798F0B92F9927B751FA
:100C1000B0F0E1F0660F771F881F991F1AF0BA95A0
:100C2000C9F714C0B13091F00E94B606B1E0089542
:100C30000C94B606672F782F8827B85F39F0B93F34
:100C4000CCF3869577956795B395D9F73EF4909553
:100C50008095709561957F4F8F4F9F4F0895E894D1
:100C600009C097FB3EF490958095709561957F4FF4
:100C70008F4F9F4F9923A9F0F92F96E9BB279395A2
:100C8000F695879577956795B795F111F8CFFAF4B2
:100C9000BB0F11F460FF1BC06F5F7F4F8F4F9F4FE3
:100CA00016C0882311F096E911C0772321F09EE841
:100CB000872F762F05C0662371F096E8862F70E0A7
:100CC00060E02AF09A95660F771F881FDAF7880F81
:100CD0009695879597F9089597F99F6780E870E052
:100CE00060E008959FEF80EC089500240A941616A2
:100CF000170618060906089500240A94121613060A
:100D0000140605060895092E0394000C11F4882397
:100D100052F0BB0F40F4BF2B11F460FF04C06F5FB3
:100D20007F4F8F4F9F4F089557FD9058440F551F89
:100D300059F05F3F71F04795880F97FB991F61F05D
:100D40009F3F79F087950895121613061406551FD4
:100D5000F2CF4695F1DF08C0161617061806991F40
:100D6000F1CF86957105610508940895E894BB2735
:100D700066277727CB0197F90895EE0FFF1F05909F
:100D8000F491E02D099481E090E0F8940C94C80669
:040D9000F894FFCF05
:100D94000000000023018C00BB006A01EC00CA00C3
:020DA400DE006F
:107E0000112484B714BE81FFF0D085E080938100F7
:107E100082E08093C00088E18093C10086E0809377
:107E2000C20080E18093C4008EE0C9D0259A86E02C
:107E300020E33CEF91E0309385002093840096BBD3
:107E4000B09BFECF1D9AA8958150A9F7CC24DD24C4
:107E500088248394B5E0AB2EA1E19A2EF3E0BF2EE7
:107E6000A2D0813461F49FD0082FAFD0023811F036
:107E7000013811F484E001C083E08DD089C08234E0
:107E800011F484E103C0853419F485E0A6D080C0E4
:107E9000853579F488D0E82EFF2485D0082F10E0AE
:107EA000102F00270E291F29000F111F8ED06801E7
:107EB0006FC0863521F484E090D080E0DECF843638
:107EC00009F040C070D06FD0082F6DD080E0C81688
:107ED00080E7D80618F4F601B7BEE895C0E0D1E017
:107EE00062D089930C17E1F7F0E0CF16F0E7DF06D8
:107EF00018F0F601B7BEE89568D007B600FCFDCFD4
:107F0000A601A0E0B1E02C9130E011968C91119780
:107F100090E0982F8827822B932B1296FA010C0160
:107F200087BEE89511244E5F5F4FF1E0A038BF0790
:107F300051F7F601A7BEE89507B600FCFDCF97BE46
:107F4000E89526C08437B1F42ED02DD0F82E2BD052
:107F50003CD0F601EF2C8F010F5F1F4F84911BD097
:107F6000EA94F801C1F70894C11CD11CFA94CF0C13
:107F7000D11C0EC0853739F428D08EE10CD085E9AC
:107F80000AD08FE07ACF813511F488E018D01DD067
:107F900080E101D065CF982F8091C00085FFFCCF94
:107FA0009093C60008958091C00087FFFCCF809118
:107FB000C00084FD01C0A8958091C6000895E0E648
:107FC000F0E098E1908380830895EDDF803219F02E
:107FD00088E0F5DFFFCF84E1DECF1F93182FE3DFCA
:107FE0001150E9F7F2DF1F91089580E0E8DFEE27F6
:047FF000FF270994CA
:027FFE00040479
:0400000300007E007B
:00000001FF
